{"abi":[{"type":"constructor","inputs":[{"name":"_acesCurvesAddress","type":"address","internalType":"address"}],"stateMutability":"nonpayable"},{"type":"fallback","stateMutability":"payable"},{"type":"receive","stateMutability":"payable"},{"type":"function","name":"getCurvesAddress","inputs":[],"outputs":[{"name":"","type":"address","internalType":"address"}],"stateMutability":"view"},{"type":"function","name":"pause","inputs":[],"outputs":[],"stateMutability":"nonpayable"},{"type":"function","name":"sellUSDCAndBuyCurve","inputs":[{"name":"amountIn","type":"uint256","internalType":"uint256"},{"name":"amountOutMin","type":"uint256","internalType":"uint256"},{"name":"roomOwner","type":"address","internalType":"address"},{"name":"roomNumber","type":"uint256","internalType":"uint256"},{"name":"amount","type":"uint256","internalType":"uint256"}],"outputs":[{"name":"success","type":"bool","internalType":"bool"}],"stateMutability":"nonpayable"},{"type":"function","name":"sellUSDTAndBuyCurve","inputs":[{"name":"amountIn","type":"uint256","internalType":"uint256"},{"name":"amountOutMin","type":"uint256","internalType":"uint256"},{"name":"roomOwner","type":"address","internalType":"address"},{"name":"roomNumber","type":"uint256","internalType":"uint256"},{"name":"amount","type":"uint256","internalType":"uint256"}],"outputs":[{"name":"success","type":"bool","internalType":"bool"}],"stateMutability":"nonpayable"},{"type":"function","name":"unpause","inputs":[],"outputs":[],"stateMutability":"nonpayable"},{"type":"function","name":"updateCurvesAddress","inputs":[{"name":"newCurvesAddress","type":"address","internalType":"address"}],"outputs":[],"stateMutability":"nonpayable"},{"type":"event","name":"Log","inputs":[{"name":"message","type":"string","indexed":false,"internalType":"string"}],"anonymous":false},{"type":"event","name":"Paused","inputs":[{"name":"account","type":"address","indexed":false,"internalType":"address"}],"anonymous":false},{"type":"event","name":"Unpaused","inputs":[{"name":"account","type":"address","indexed":false,"internalType":"address"}],"anonymous":false}],"bytecode":{"object":"0x608060405234801561000f575f80fd5b506040516123293803806123298339818101604052810190610031919061012e565b805f806101000a81548173ffffffffffffffffffffffffffffffffffffffff021916908373ffffffffffffffffffffffffffffffffffffffff1602179055503360015f6101000a81548173ffffffffffffffffffffffffffffffffffffffff021916908373ffffffffffffffffffffffffffffffffffffffff1602179055505f600160146101000a81548160ff02191690831515021790555050610159565b5f80fd5b5f73ffffffffffffffffffffffffffffffffffffffff82169050919050565b5f6100fd826100d4565b9050919050565b61010d816100f3565b8114610117575f80fd5b50565b5f8151905061012881610104565b92915050565b5f60208284031215610143576101426100d0565b5b5f6101508482850161011a565b91505092915050565b6121c3806101665f395ff3fe608060405260043610610058575f3560e01c80633f4ba83a146100615780638456cb5914610077578063b5c4a3dd1461008d578063b97b401c146100c9578063ef9ef383146100f1578063faa908901461012d5761005f565b3661005f57005b005b34801561006c575f80fd5b50610075610157565b005b348015610082575f80fd5b5061008b610201565b005b348015610098575f80fd5b506100b360048036038101906100ae91906118af565b6102ac565b6040516100c09190611940565b60405180910390f35b3480156100d4575f80fd5b506100ef60048036038101906100ea9190611959565b610c84565b005b3480156100fc575f80fd5b50610117600480360381019061011291906118af565b610d3c565b6040516101249190611940565b60405180910390f35b348015610138575f80fd5b50610141611714565b60405161014e9190611993565b60405180910390f35b61015f61173b565b600160149054906101000a900460ff166101ae576040517f08c379a00000000000000000000000000000000000000000000000000000000081526004016101a590611a06565b60405180910390fd5b5f600160146101000a81548160ff0219169083151502179055507f5db9ee0a495bf2e6ff9c91a7834c1ba4fdd244a5e8aa4e537bd38aeae4b073aa336040516101f79190611993565b60405180910390a1565b61020961173b565b600160149054906101000a900460ff1615610259576040517f08c379a000000000000000000000000000000000000000000000000000000000815260040161025090611a6e565b60405180910390fd5b60018060146101000a81548160ff0219169083151502179055507f62e78cea01bee320cd4e420270b5ea74000d11b0c9f74754ebdbfc544b05a258336040516102a29190611993565b60405180910390a1565b5f6102b56117cc565b73833589fcd6edb6e08f4c7c32d4f71b54bda0291373ffffffffffffffffffffffffffffffffffffffff166323b872dd3330896040518463ffffffff1660e01b815260040161030693929190611a9b565b6020604051808303815f875af192505050801561034157506040513d601f19601f8201168201806040525081019061033e9190611afa565b60015b610380576040517f08c379a000000000000000000000000000000000000000000000000000000000815260040161037790611b95565b60405180910390fd5b507fcf34ef537ac33ee1ac626ca1587a0a7e8e51561e5514f8cb36afa1c5102b3bab6040516103ae90611bfd565b60405180910390a173833589fcd6edb6e08f4c7c32d4f71b54bda0291373ffffffffffffffffffffffffffffffffffffffff1663095ea7b3732626664c2603336e57b271c5c0b26f421741e481886040518363ffffffff1660e01b8152600401610419929190611c1b565b6020604051808303815f875af192505050801561045457506040513d601f19601f820116820180604052508101906104519190611afa565b60015b610493576040517f08c379a000000000000000000000000000000000000000000000000000000000815260040161048a90611cb2565b60405180910390fd5b507fcf34ef537ac33ee1ac626ca1587a0a7e8e51561e5514f8cb36afa1c5102b3bab6040516104c190611d1a565b60405180910390a15f6040518060e0016040528073833589fcd6edb6e08f4c7c32d4f71b54bda0291373ffffffffffffffffffffffffffffffffffffffff16815260200173420000000000000000000000000000000000000673ffffffffffffffffffffffffffffffffffffffff1681526020016101f462ffffff1681526020013073ffffffffffffffffffffffffffffffffffffffff1681526020018881526020018781526020015f73ffffffffffffffffffffffffffffffffffffffff1681525090505f732626664c2603336e57b271c5c0b26f421741e48173ffffffffffffffffffffffffffffffffffffffff166304e45aaf836040518263ffffffff1660e01b81526004016105d49190611e0e565b6020604051808303815f875af11580156105f0573d5f803e3d5ffd5b505050506040513d601f19601f820116820180604052508101906106149190611e3b565b905073420000000000000000000000000000000000000673ffffffffffffffffffffffffffffffffffffffff16632e1a7d4d826040518263ffffffff1660e01b81526004016106639190611e66565b5f604051808303815f87803b15801561067a575f80fd5b505af115801561068c573d5f803e3d5ffd5b505050505f4790505f805f9054906101000a900473ffffffffffffffffffffffffffffffffffffffff1673ffffffffffffffffffffffffffffffffffffffff1663f1220bbf8989896040518463ffffffff1660e01b81526004016106f293929190611e7f565b602060405180830381865afa15801561070d573d5f803e3d5ffd5b505050506040513d601f19601f820116820180604052508101906107319190611e3b565b905080821015610776576040517f08c379a000000000000000000000000000000000000000000000000000000000815260040161076d90611efe565b60405180910390fd5b5f8054906101000a900473ffffffffffffffffffffffffffffffffffffffff1673ffffffffffffffffffffffffffffffffffffffff1663c89c3ab182338b8b8b6040518663ffffffff1660e01b81526004016107d59493929190611f1c565b5f604051808303818588803b1580156107ec575f80fd5b505af1935050505080156107fe575060015b61083d576040517f08c379a000000000000000000000000000000000000000000000000000000000815260040161083490611fa9565b60405180910390fd5b7fcf34ef537ac33ee1ac626ca1587a0a7e8e51561e5514f8cb36afa1c5102b3bab60405161086a90612011565b60405180910390a15f4790505f811115610c725773420000000000000000000000000000000000000673ffffffffffffffffffffffffffffffffffffffff1663d0e30db0826040518263ffffffff1660e01b81526004015f604051808303818588803b1580156108d8575f80fd5b505af11580156108ea573d5f803e3d5ffd5b50505050505f73420000000000000000000000000000000000000673ffffffffffffffffffffffffffffffffffffffff166370a08231306040518263ffffffff1660e01b815260040161093d9190611993565b602060405180830381865afa158015610958573d5f803e3d5ffd5b505050506040513d601f19601f8201168201806040525081019061097c9190611e3b565b905073420000000000000000000000000000000000000673ffffffffffffffffffffffffffffffffffffffff1663095ea7b3732626664c2603336e57b271c5c0b26f421741e481836040518363ffffffff1660e01b81526004016109e1929190611c1b565b6020604051808303815f875af1925050508015610a1c57506040513d601f19601f82011682018060405250810190610a199190611afa565b60015b610a5b576040517f08c379a0000000000000000000000000000000000000000000000000000000008152600401610a5290611cb2565b60405180910390fd5b507fcf34ef537ac33ee1ac626ca1587a0a7e8e51561e5514f8cb36afa1c5102b3bab604051610a8990611d1a565b60405180910390a15f6040518060e0016040528073420000000000000000000000000000000000000673ffffffffffffffffffffffffffffffffffffffff16815260200173833589fcd6edb6e08f4c7c32d4f71b54bda0291373ffffffffffffffffffffffffffffffffffffffff1681526020016101f462ffffff1681526020013073ffffffffffffffffffffffffffffffffffffffff1681526020018381526020015f81526020015f73ffffffffffffffffffffffffffffffffffffffff1681525090505f732626664c2603336e57b271c5c0b26f421741e48173ffffffffffffffffffffffffffffffffffffffff166304e45aaf836040518263ffffffff1660e01b8152600401610b9c9190611e0e565b6020604051808303815f875af1158015610bb8573d5f803e3d5ffd5b505050506040513d601f19601f82011682018060405250810190610bdc9190611e3b565b905073833589fcd6edb6e08f4c7c32d4f71b54bda0291373ffffffffffffffffffffffffffffffffffffffff1663a9059cbb33836040518363ffffffff1660e01b8152600401610c2d929190611c1b565b6020604051808303815f875af1158015610c49573d5f803e3d5ffd5b505050506040513d601f19601f82011682018060405250810190610c6d9190611afa565b505050505b60019550505050505095945050505050565b610c8c61173b565b5f73ffffffffffffffffffffffffffffffffffffffff168173ffffffffffffffffffffffffffffffffffffffff1603610cfa576040517f08c379a0000000000000000000000000000000000000000000000000000000008152600401610cf190612079565b60405180910390fd5b805f806101000a81548173ffffffffffffffffffffffffffffffffffffffff021916908373ffffffffffffffffffffffffffffffffffffffff16021790555050565b5f610d456117cc565b73fde4c96c8593536e31f229ea8f37b2ada2699bb273ffffffffffffffffffffffffffffffffffffffff166323b872dd3330896040518463ffffffff1660e01b8152600401610d9693929190611a9b565b6020604051808303815f875af1925050508015610dd157506040513d601f19601f82011682018060405250810190610dce9190611afa565b60015b610e10576040517f08c379a0000000000000000000000000000000000000000000000000000000008152600401610e0790611b95565b60405180910390fd5b507fcf34ef537ac33ee1ac626ca1587a0a7e8e51561e5514f8cb36afa1c5102b3bab604051610e3e90611bfd565b60405180910390a173fde4c96c8593536e31f229ea8f37b2ada2699bb273ffffffffffffffffffffffffffffffffffffffff1663095ea7b3732626664c2603336e57b271c5c0b26f421741e481886040518363ffffffff1660e01b8152600401610ea9929190611c1b565b6020604051808303815f875af1925050508015610ee457506040513d601f19601f82011682018060405250810190610ee19190611afa565b60015b610f23576040517f08c379a0000000000000000000000000000000000000000000000000000000008152600401610f1a90611cb2565b60405180910390fd5b507fcf34ef537ac33ee1ac626ca1587a0a7e8e51561e5514f8cb36afa1c5102b3bab604051610f5190611d1a565b60405180910390a15f6040518060e0016040528073fde4c96c8593536e31f229ea8f37b2ada2699bb273ffffffffffffffffffffffffffffffffffffffff16815260200173420000000000000000000000000000000000000673ffffffffffffffffffffffffffffffffffffffff1681526020016101f462ffffff1681526020013073ffffffffffffffffffffffffffffffffffffffff1681526020018881526020018781526020015f73ffffffffffffffffffffffffffffffffffffffff1681525090505f732626664c2603336e57b271c5c0b26f421741e48173ffffffffffffffffffffffffffffffffffffffff166304e45aaf836040518263ffffffff1660e01b81526004016110649190611e0e565b6020604051808303815f875af1158015611080573d5f803e3d5ffd5b505050506040513d601f19601f820116820180604052508101906110a49190611e3b565b905073420000000000000000000000000000000000000673ffffffffffffffffffffffffffffffffffffffff16632e1a7d4d826040518263ffffffff1660e01b81526004016110f39190611e66565b5f604051808303815f87803b15801561110a575f80fd5b505af115801561111c573d5f803e3d5ffd5b505050505f4790505f805f9054906101000a900473ffffffffffffffffffffffffffffffffffffffff1673ffffffffffffffffffffffffffffffffffffffff1663f1220bbf8989896040518463ffffffff1660e01b815260040161118293929190611e7f565b602060405180830381865afa15801561119d573d5f803e3d5ffd5b505050506040513d601f19601f820116820180604052508101906111c19190611e3b565b905080821015611206576040517f08c379a00000000000000000000000000000000000000000000000000000000081526004016111fd90611efe565b60405180910390fd5b5f8054906101000a900473ffffffffffffffffffffffffffffffffffffffff1673ffffffffffffffffffffffffffffffffffffffff1663c89c3ab182338b8b8b6040518663ffffffff1660e01b81526004016112659493929190611f1c565b5f604051808303818588803b15801561127c575f80fd5b505af19350505050801561128e575060015b6112cd576040517f08c379a00000000000000000000000000000000000000000000000000000000081526004016112c490611fa9565b60405180910390fd5b7fcf34ef537ac33ee1ac626ca1587a0a7e8e51561e5514f8cb36afa1c5102b3bab6040516112fa90612011565b60405180910390a15f4790505f8111156117025773420000000000000000000000000000000000000673ffffffffffffffffffffffffffffffffffffffff1663d0e30db0826040518263ffffffff1660e01b81526004015f604051808303818588803b158015611368575f80fd5b505af115801561137a573d5f803e3d5ffd5b50505050505f73420000000000000000000000000000000000000673ffffffffffffffffffffffffffffffffffffffff166370a08231306040518263ffffffff1660e01b81526004016113cd9190611993565b602060405180830381865afa1580156113e8573d5f803e3d5ffd5b505050506040513d601f19601f8201168201806040525081019061140c9190611e3b565b905073420000000000000000000000000000000000000673ffffffffffffffffffffffffffffffffffffffff1663095ea7b3732626664c2603336e57b271c5c0b26f421741e481836040518363ffffffff1660e01b8152600401611471929190611c1b565b6020604051808303815f875af19250505080156114ac57506040513d601f19601f820116820180604052508101906114a99190611afa565b60015b6114eb576040517f08c379a00000000000000000000000000000000000000000000000000000000081526004016114e290611cb2565b60405180910390fd5b507fcf34ef537ac33ee1ac626ca1587a0a7e8e51561e5514f8cb36afa1c5102b3bab60405161151990611d1a565b60405180910390a15f6040518060e0016040528073420000000000000000000000000000000000000673ffffffffffffffffffffffffffffffffffffffff16815260200173fde4c96c8593536e31f229ea8f37b2ada2699bb273ffffffffffffffffffffffffffffffffffffffff1681526020016101f462ffffff1681526020013073ffffffffffffffffffffffffffffffffffffffff1681526020018381526020015f81526020015f73ffffffffffffffffffffffffffffffffffffffff1681525090505f732626664c2603336e57b271c5c0b26f421741e48173ffffffffffffffffffffffffffffffffffffffff166304e45aaf836040518263ffffffff1660e01b815260040161162c9190611e0e565b6020604051808303815f875af1158015611648573d5f803e3d5ffd5b505050506040513d601f19601f8201168201806040525081019061166c9190611e3b565b905073fde4c96c8593536e31f229ea8f37b2ada2699bb273ffffffffffffffffffffffffffffffffffffffff1663a9059cbb33836040518363ffffffff1660e01b81526004016116bd929190611c1b565b6020604051808303815f875af11580156116d9573d5f803e3d5ffd5b505050506040513d601f19601f820116820180604052508101906116fd9190611afa565b505050505b60019550505050505095945050505050565b5f805f9054906101000a900473ffffffffffffffffffffffffffffffffffffffff16905090565b60015f9054906101000a900473ffffffffffffffffffffffffffffffffffffffff1673ffffffffffffffffffffffffffffffffffffffff163373ffffffffffffffffffffffffffffffffffffffff16146117ca576040517f08c379a00000000000000000000000000000000000000000000000000000000081526004016117c190612107565b60405180910390fd5b565b600160149054906101000a900460ff161561181c576040517f08c379a00000000000000000000000000000000000000000000000000000000081526004016118139061216f565b60405180910390fd5b565b5f80fd5b5f819050919050565b61183481611822565b811461183e575f80fd5b50565b5f8135905061184f8161182b565b92915050565b5f73ffffffffffffffffffffffffffffffffffffffff82169050919050565b5f61187e82611855565b9050919050565b61188e81611874565b8114611898575f80fd5b50565b5f813590506118a981611885565b92915050565b5f805f805f60a086880312156118c8576118c761181e565b5b5f6118d588828901611841565b95505060206118e688828901611841565b94505060406118f78882890161189b565b935050606061190888828901611841565b925050608061191988828901611841565b9150509295509295909350565b5f8115159050919050565b61193a81611926565b82525050565b5f6020820190506119535f830184611931565b92915050565b5f6020828403121561196e5761196d61181e565b5b5f61197b8482850161189b565b91505092915050565b61198d81611874565b82525050565b5f6020820190506119a65f830184611984565b92915050565b5f82825260208201905092915050565b7f436f6e747261637420697320616c726561647920756e706175736564000000005f82015250565b5f6119f0601c836119ac565b91506119fb826119bc565b602082019050919050565b5f6020820190508181035f830152611a1d816119e4565b9050919050565b7f436f6e747261637420697320616c7265616479207061757365640000000000005f82015250565b5f611a58601a836119ac565b9150611a6382611a24565b602082019050919050565b5f6020820190508181035f830152611a8581611a4c565b9050919050565b611a9581611822565b82525050565b5f606082019050611aae5f830186611984565b611abb6020830185611984565b611ac86040830184611a8c565b949350505050565b611ad981611926565b8114611ae3575f80fd5b50565b5f81519050611af481611ad0565b92915050565b5f60208284031215611b0f57611b0e61181e565b5b5f611b1c84828501611ae6565b91505092915050565b7f5472616e73666572696e6720746f6b656e7320746f20636f6e747261637420665f8201527f61696c6564000000000000000000000000000000000000000000000000000000602082015250565b5f611b7f6025836119ac565b9150611b8a82611b25565b604082019050919050565b5f6020820190508181035f830152611bac81611b73565b9050919050565b7f7472616e7366657246726f6d20737563636573730000000000000000000000005f82015250565b5f611be76014836119ac565b9150611bf282611bb3565b602082019050919050565b5f6020820190508181035f830152611c1481611bdb565b9050919050565b5f604082019050611c2e5f830185611984565b611c3b6020830184611a8c565b9392505050565b7f417070726f76696e6720746f6b656e7320746f20726f75746572206661696c655f8201527f6400000000000000000000000000000000000000000000000000000000000000602082015250565b5f611c9c6021836119ac565b9150611ca782611c42565b604082019050919050565b5f6020820190508181035f830152611cc981611c90565b9050919050565b7f617070726f766520756e697377617020726f75746572207375636365737300005f82015250565b5f611d04601e836119ac565b9150611d0f82611cd0565b602082019050919050565b5f6020820190508181035f830152611d3181611cf8565b9050919050565b611d4181611874565b82525050565b5f62ffffff82169050919050565b611d5e81611d47565b82525050565b611d6d81611822565b82525050565b611d7c81611855565b82525050565b60e082015f820151611d965f850182611d38565b506020820151611da96020850182611d38565b506040820151611dbc6040850182611d55565b506060820151611dcf6060850182611d38565b506080820151611de26080850182611d64565b5060a0820151611df560a0850182611d64565b5060c0820151611e0860c0850182611d73565b50505050565b5f60e082019050611e215f830184611d82565b92915050565b5f81519050611e358161182b565b92915050565b5f60208284031215611e5057611e4f61181e565b5b5f611e5d84828501611e27565b91505092915050565b5f602082019050611e795f830184611a8c565b92915050565b5f606082019050611e925f830186611984565b611e9f6020830185611a8c565b611eac6040830184611a8c565b949350505050565b7f4e6f7420656e6f7567682045544820746f2062757920726f6f6d0000000000005f82015250565b5f611ee8601a836119ac565b9150611ef382611eb4565b602082019050919050565b5f6020820190508181035f830152611f1581611edc565b9050919050565b5f608082019050611f2f5f830187611984565b611f3c6020830186611984565b611f496040830185611a8c565b611f566060830184611a8c565b95945050505050565b7f427579696e6720736861726573206661696c65640000000000000000000000005f82015250565b5f611f936014836119ac565b9150611f9e82611f5f565b602082019050919050565b5f6020820190508181035f830152611fc081611f87565b9050919050565b7f627579536861726573466f7220737563636573730000000000000000000000005f82015250565b5f611ffb6014836119ac565b915061200682611fc7565b602082019050919050565b5f6020820190508181035f83015261202881611fef565b9050919050565b7f496e76616c6964206375727665732061646472657373000000000000000000005f82015250565b5f6120636016836119ac565b915061206e8261202f565b602082019050919050565b5f6020820190508181035f83015261209081612057565b9050919050565b7f4f6e6c79206f776e65722063616e2063616c6c20746869732066756e6374696f5f8201527f6e00000000000000000000000000000000000000000000000000000000000000602082015250565b5f6120f16021836119ac565b91506120fc82612097565b604082019050919050565b5f6020820190508181035f83015261211e816120e5565b9050919050565b7f436f6e74726163742069732070617573656400000000000000000000000000005f82015250565b5f6121596012836119ac565b915061216482612125565b602082019050919050565b5f6020820190508181035f8301526121868161214d565b905091905056fea2646970667358221220ed74c0d799b28661924be09cba4111723dcf9ef76371b44f98674ee884246cb764736f6c634300081a0033","linkReferences":{}},"methodIdentifiers":{"getCurvesAddress()":"faa90890","pause()":"8456cb59","sellUSDCAndBuyCurve(uint256,uint256,address,uint256,uint256)":"b5c4a3dd","sellUSDTAndBuyCurve(uint256,uint256,address,uint256,uint256)":"ef9ef383","unpause()":"3f4ba83a","updateCurvesAddress(address)":"b97b401c"},"storageLayout":{"storage":[{"astId":45957,"contract":"src/AcesSwap.sol:AcesSwap","label":"acesCurves","offset":0,"slot":"0","type":"t_contract(AcesInterface)46904"},{"astId":45959,"contract":"src/AcesSwap.sol:AcesSwap","label":"owner","offset":0,"slot":"1","type":"t_address"},{"astId":45961,"contract":"src/AcesSwap.sol:AcesSwap","label":"paused","offset":20,"slot":"1","type":"t_bool"}],"types":{"t_address":{"encoding":"inplace","label":"address","numberOfBytes":"20"},"t_bool":{"encoding":"inplace","label":"bool","numberOfBytes":"1"},"t_contract(AcesInterface)46904":{"encoding":"inplace","label":"contract AcesInterface","numberOfBytes":"20"}}},"id":39}